{
  "address": "0x0f8628f2def1659a6E2e854d937A8A10a9e04C4b",
  "abi": [
    {
      "inputs": [
        {
          "internalType": "address",
          "name": "priceFeedAddress",
          "type": "address"
        }
      ],
      "stateMutability": "nonpayable",
      "type": "constructor"
    },
    {
      "inputs": [],
      "name": "NotOwner",
      "type": "error"
    },
    {
      "stateMutability": "payable",
      "type": "fallback"
    },
    {
      "inputs": [],
      "name": "MINIMUM_USD",
      "outputs": [
        {
          "internalType": "uint256",
          "name": "",
          "type": "uint256"
        }
      ],
      "stateMutability": "view",
      "type": "function"
    },
    {
      "inputs": [
        {
          "internalType": "address",
          "name": "",
          "type": "address"
        }
      ],
      "name": "addressToAmountFunded",
      "outputs": [
        {
          "internalType": "uint256",
          "name": "",
          "type": "uint256"
        }
      ],
      "stateMutability": "view",
      "type": "function"
    },
    {
      "inputs": [],
      "name": "fund",
      "outputs": [],
      "stateMutability": "payable",
      "type": "function"
    },
    {
      "inputs": [
        {
          "internalType": "uint256",
          "name": "",
          "type": "uint256"
        }
      ],
      "name": "funders",
      "outputs": [
        {
          "internalType": "address",
          "name": "",
          "type": "address"
        }
      ],
      "stateMutability": "view",
      "type": "function"
    },
    {
      "inputs": [],
      "name": "i_owner",
      "outputs": [
        {
          "internalType": "address",
          "name": "",
          "type": "address"
        }
      ],
      "stateMutability": "view",
      "type": "function"
    },
    {
      "inputs": [],
      "name": "priceFeed",
      "outputs": [
        {
          "internalType": "contract AggregatorV3Interface",
          "name": "",
          "type": "address"
        }
      ],
      "stateMutability": "view",
      "type": "function"
    },
    {
      "inputs": [],
      "name": "withdraw",
      "outputs": [],
      "stateMutability": "nonpayable",
      "type": "function"
    },
    {
      "stateMutability": "payable",
      "type": "receive"
    }
  ],
  "transactionHash": "0x7d9488d7de8cee8e9fdbb0fc938e6358bdb9fbc079024a6e904d9dee6d91d9f6",
  "args": [
    "0xD4a33860578De61DBAbDc8BFdb98FD742fA7028e"
  ],
  "numDeployments": 1,
  "solcInputHash": "b97d9dbdd9f6f4af2ab64710482e8929",
  "bytecode": "0x60a060405234801561001057600080fd5b5060405162000fce38038062000fce833981810160405281019061003491906100c7565b3373ffffffffffffffffffffffffffffffffffffffff1660808173ffffffffffffffffffffffffffffffffffffffff1660601b8152505080600260006101000a81548173ffffffffffffffffffffffffffffffffffffffff021916908373ffffffffffffffffffffffffffffffffffffffff16021790555050610142565b6000815190506100c18161012b565b92915050565b6000602082840312156100dd576100dc610126565b5b60006100eb848285016100b2565b91505092915050565b60006100ff82610106565b9050919050565b600073ffffffffffffffffffffffffffffffffffffffff82169050919050565b600080fd5b610134816100f4565b811461013f57600080fd5b50565b60805160601c610e6662000168600039600081816102e601526105710152610e666000f3fe6080604052600436106100745760003560e01c8063741bef1a1161004e578063741bef1a1461010c578063b60d428814610137578063dba6335f14610141578063dc0d3dff1461016c57610083565b80633ccfd60b1461008d5780633e47d6f3146100a45780636b69a592146100e157610083565b36610083576100816101a9565b005b61008b6101a9565b005b34801561009957600080fd5b506100a26102e4565b005b3480156100b057600080fd5b506100cb60048036038101906100c691906107be565b610524565b6040516100d891906109b4565b60405180910390f35b3480156100ed57600080fd5b506100f661053c565b60405161010391906109b4565b60405180910390f35b34801561011857600080fd5b50610121610549565b60405161012e9190610959565b60405180910390f35b61013f6101a9565b005b34801561014d57600080fd5b5061015661056f565b604051610163919061093e565b60405180910390f35b34801561017857600080fd5b50610193600480360381019061018e91906107eb565b610593565b6040516101a0919061093e565b60405180910390f35b6802b5e3af16b18800006101e8600260009054906101000a900473ffffffffffffffffffffffffffffffffffffffff16346105d290919063ffffffff16565b1015610229576040517f08c379a000000000000000000000000000000000000000000000000000000000815260040161022090610994565b60405180910390fd5b6000339080600181540180825580915050600190039060005260206000200160009091909190916101000a81548173ffffffffffffffffffffffffffffffffffffffff021916908373ffffffffffffffffffffffffffffffffffffffff16021790555034600160003373ffffffffffffffffffffffffffffffffffffffff1673ffffffffffffffffffffffffffffffffffffffff16815260200190815260200160002060008282546102db91906109eb565b92505081905550565b7f000000000000000000000000000000000000000000000000000000000000000073ffffffffffffffffffffffffffffffffffffffff163373ffffffffffffffffffffffffffffffffffffffff1614610369576040517f30cd747100000000000000000000000000000000000000000000000000000000815260040160405180910390fd5b60005b60008054905081101561041457600080828154811061038e5761038d610d1c565b5b9060005260206000200160009054906101000a900473ffffffffffffffffffffffffffffffffffffffff1690506000600160008373ffffffffffffffffffffffffffffffffffffffff1673ffffffffffffffffffffffffffffffffffffffff1681526020019081526020016000208190555050808061040c90610c75565b91505061036c565b50600067ffffffffffffffff8111156104305761042f610d4b565b5b60405190808252806020026020018201604052801561045e5781602001602082028036833780820191505090505b50600090805190602001906104749291906106ae565b5060003373ffffffffffffffffffffffffffffffffffffffff164760405161049b90610929565b60006040518083038185875af1925050503d80600081146104d8576040519150601f19603f3d011682016040523d82523d6000602084013e6104dd565b606091505b5050905080610521576040517f08c379a000000000000000000000000000000000000000000000000000000000815260040161051890610974565b60405180910390fd5b50565b60016020528060005260406000206000915090505481565b6802b5e3af16b188000081565b600260009054906101000a900473ffffffffffffffffffffffffffffffffffffffff1681565b7f000000000000000000000000000000000000000000000000000000000000000081565b600081815481106105a357600080fd5b906000526020600020016000915054906101000a900473ffffffffffffffffffffffffffffffffffffffff1681565b6000806105de8361060e565b90506000670de0b6b3a764000085836105f79190610b89565b6106019190610a41565b9050809250505092915050565b6000808273ffffffffffffffffffffffffffffffffffffffff1663feaf968c6040518163ffffffff1660e01b815260040160a06040518083038186803b15801561065757600080fd5b505afa15801561066b573d6000803e3d6000fd5b505050506040513d601f19601f8201168201806040525081019061068f9190610818565b5050509150506402540be400816106a69190610a72565b915050919050565b828054828255906000526020600020908101928215610727579160200282015b828111156107265782518260006101000a81548173ffffffffffffffffffffffffffffffffffffffff021916908373ffffffffffffffffffffffffffffffffffffffff160217905550916020019190600101906106ce565b5b5090506107349190610738565b5090565b5b80821115610751576000816000905550600101610739565b5090565b60008135905061076481610dd4565b92915050565b60008151905061077981610deb565b92915050565b60008135905061078e81610e02565b92915050565b6000815190506107a381610e02565b92915050565b6000815190506107b881610e19565b92915050565b6000602082840312156107d4576107d3610d7a565b5b60006107e284828501610755565b91505092915050565b60006020828403121561080157610800610d7a565b5b600061080f8482850161077f565b91505092915050565b600080600080600060a0868803121561083457610833610d7a565b5b6000610842888289016107a9565b95505060206108538882890161076a565b945050604061086488828901610794565b935050606061087588828901610794565b9250506080610886888289016107a9565b9150509295509295909350565b61089c81610be3565b82525050565b6108ab81610c3f565b82525050565b60006108be600b836109da565b91506108c982610d7f565b602082019050919050565b60006108e16000836109cf565b91506108ec82610da8565b600082019050919050565b60006109046013836109da565b915061090f82610dab565b602082019050919050565b61092381610c1f565b82525050565b6000610934826108d4565b9150819050919050565b60006020820190506109536000830184610893565b92915050565b600060208201905061096e60008301846108a2565b92915050565b6000602082019050818103600083015261098d816108b1565b9050919050565b600060208201905081810360008301526109ad816108f7565b9050919050565b60006020820190506109c9600083018461091a565b92915050565b600081905092915050565b600082825260208201905092915050565b60006109f682610c1f565b9150610a0183610c1f565b9250827fffffffffffffffffffffffffffffffffffffffffffffffffffffffffffffffff03821115610a3657610a35610cbe565b5b828201905092915050565b6000610a4c82610c1f565b9150610a5783610c1f565b925082610a6757610a66610ced565b5b828204905092915050565b6000610a7d82610bf5565b9150610a8883610bf5565b9250827f7fffffffffffffffffffffffffffffffffffffffffffffffffffffffffffffff0482116000841360008413161615610ac757610ac6610cbe565b5b817f80000000000000000000000000000000000000000000000000000000000000000583126000841260008413161615610b0457610b03610cbe565b5b827f80000000000000000000000000000000000000000000000000000000000000000582126000841360008412161615610b4157610b40610cbe565b5b827f7fffffffffffffffffffffffffffffffffffffffffffffffffffffffffffffff0582126000841260008412161615610b7e57610b7d610cbe565b5b828202905092915050565b6000610b9482610c1f565b9150610b9f83610c1f565b9250817fffffffffffffffffffffffffffffffffffffffffffffffffffffffffffffffff0483118215151615610bd857610bd7610cbe565b5b828202905092915050565b6000610bee82610bff565b9050919050565b6000819050919050565b600073ffffffffffffffffffffffffffffffffffffffff82169050919050565b6000819050919050565b600069ffffffffffffffffffff82169050919050565b6000610c4a82610c51565b9050919050565b6000610c5c82610c63565b9050919050565b6000610c6e82610bff565b9050919050565b6000610c8082610c1f565b91507fffffffffffffffffffffffffffffffffffffffffffffffffffffffffffffffff821415610cb357610cb2610cbe565b5b600182019050919050565b7f4e487b7100000000000000000000000000000000000000000000000000000000600052601160045260246000fd5b7f4e487b7100000000000000000000000000000000000000000000000000000000600052601260045260246000fd5b7f4e487b7100000000000000000000000000000000000000000000000000000000600052603260045260246000fd5b7f4e487b7100000000000000000000000000000000000000000000000000000000600052604160045260246000fd5b600080fd5b7f43616c6c206661696c6564000000000000000000000000000000000000000000600082015250565b50565b7f4469646e27742073656e6420656e6f7567682100000000000000000000000000600082015250565b610ddd81610be3565b8114610de857600080fd5b50565b610df481610bf5565b8114610dff57600080fd5b50565b610e0b81610c1f565b8114610e1657600080fd5b50565b610e2281610c29565b8114610e2d57600080fd5b5056fea2646970667358221220049293892e7f528069fca28e7772892ac02ddb8cbe20bb464483a50b13c9e18864736f6c63430008070033",
  "devdoc": {
    "kind": "dev",
    "methods": {},
    "version": 1
  },
  "userdoc": {
    "kind": "user",
    "methods": {},
    "version": 1
  },
  "storageLayout": {
    "storage": [
      {
        "astId": 61,
        "contract": "contracts/FundMe.sol:FundMe",
        "label": "funders",
        "offset": 0,
        "slot": "0",
        "type": "t_array(t_address)dyn_storage"
      },
      {
        "astId": 65,
        "contract": "contracts/FundMe.sol:FundMe",
        "label": "addressToAmountFunded",
        "offset": 0,
        "slot": "1",
        "type": "t_mapping(t_address,t_uint256)"
      },
      {
        "astId": 70,
        "contract": "contracts/FundMe.sol:FundMe",
        "label": "priceFeed",
        "offset": 0,
        "slot": "2",
        "type": "t_contract(AggregatorV3Interface)45"
      }
    ],
    "types": {
      "t_address": {
        "encoding": "inplace",
        "label": "address",
        "numberOfBytes": "20"
      },
      "t_array(t_address)dyn_storage": {
        "base": "t_address",
        "encoding": "dynamic_array",
        "label": "address[]",
        "numberOfBytes": "32"
      },
      "t_contract(AggregatorV3Interface)45": {
        "encoding": "inplace",
        "label": "contract AggregatorV3Interface",
        "numberOfBytes": "20"
      },
      "t_mapping(t_address,t_uint256)": {
        "encoding": "mapping",
        "key": "t_address",
        "label": "mapping(address => uint256)",
        "numberOfBytes": "32",
        "value": "t_uint256"
      },
      "t_uint256": {
        "encoding": "inplace",
        "label": "uint256",
        "numberOfBytes": "32"
      }
    }
  }
}