{
  "address": "0x86958A73C62C6C4C058fA6fBcD9d1407B9a48B84",
  "abi": [
    {
      "inputs": [
        {
          "internalType": "address",
          "name": "priceFeedAddress",
          "type": "address"
        }
      ],
      "stateMutability": "nonpayable",
      "type": "constructor"
    },
    {
      "inputs": [],
      "name": "FundMe__NotOwner",
      "type": "error"
    },
    {
      "inputs": [],
      "name": "MINIMUM_USD",
      "outputs": [
        {
          "internalType": "uint256",
          "name": "",
          "type": "uint256"
        }
      ],
      "stateMutability": "view",
      "type": "function"
    },
    {
      "inputs": [],
      "name": "cheaperWithdraw",
      "outputs": [],
      "stateMutability": "payable",
      "type": "function"
    },
    {
      "inputs": [],
      "name": "fund",
      "outputs": [],
      "stateMutability": "payable",
      "type": "function"
    },
    {
      "inputs": [
        {
          "internalType": "address",
          "name": "funder",
          "type": "address"
        }
      ],
      "name": "getAddressToAmountFunded",
      "outputs": [
        {
          "internalType": "uint256",
          "name": "",
          "type": "uint256"
        }
      ],
      "stateMutability": "view",
      "type": "function"
    },
    {
      "inputs": [
        {
          "internalType": "uint256",
          "name": "index",
          "type": "uint256"
        }
      ],
      "name": "getFunder",
      "outputs": [
        {
          "internalType": "address",
          "name": "",
          "type": "address"
        }
      ],
      "stateMutability": "view",
      "type": "function"
    },
    {
      "inputs": [],
      "name": "getOwner",
      "outputs": [
        {
          "internalType": "address",
          "name": "",
          "type": "address"
        }
      ],
      "stateMutability": "view",
      "type": "function"
    },
    {
      "inputs": [],
      "name": "getPriceFeed",
      "outputs": [
        {
          "internalType": "contract AggregatorV3Interface",
          "name": "",
          "type": "address"
        }
      ],
      "stateMutability": "view",
      "type": "function"
    },
    {
      "inputs": [],
      "name": "withdraw",
      "outputs": [],
      "stateMutability": "nonpayable",
      "type": "function"
    }
  ],
  "transactionHash": "0x3ab7fe157ca5492473262b03ed4270a7a60db4c90690804bd5329edc1b55dc8d",
  "args": [
    "0xD4a33860578De61DBAbDc8BFdb98FD742fA7028e"
  ],
  "numDeployments": 2,
  "solcInputHash": "9d5523672b2cdf713f8812f298f4ef82",
  "bytecode": "0x60a06040523480156200001157600080fd5b50604051620012c7380380620012c78339818101604052810190620000379190620000cd565b3373ffffffffffffffffffffffffffffffffffffffff1660808173ffffffffffffffffffffffffffffffffffffffff1660601b8152505080600260006101000a81548173ffffffffffffffffffffffffffffffffffffffff021916908373ffffffffffffffffffffffffffffffffffffffff1602179055505062000152565b600081519050620000c78162000138565b92915050565b600060208284031215620000e657620000e562000133565b5b6000620000f684828501620000b6565b91505092915050565b60006200010c8262000113565b9050919050565b600073ffffffffffffffffffffffffffffffffffffffff82169050919050565b600080fd5b6200014381620000ff565b81146200014f57600080fd5b50565b60805160601c6111486200017f600039600081816101f10152818161044001526105cb01526111486000f3fe60806040526004361061007b5760003560e01c80639e87a5cd1161004e5780639e87a5cd1461012a578063b60d428814610155578063be2693f01461015f578063d7b4750c146101695761007b565b80630343fb25146100805780633ccfd60b146100bd5780636b69a592146100d4578063893d20e8146100ff575b600080fd5b34801561008c57600080fd5b506100a760048036038101906100a29190610aa0565b6101a6565b6040516100b49190610c96565b60405180910390f35b3480156100c957600080fd5b506100d26101ef565b005b3480156100e057600080fd5b506100e961042f565b6040516100f69190610c96565b60405180910390f35b34801561010b57600080fd5b5061011461043c565b6040516101219190610c20565b60405180910390f35b34801561013657600080fd5b5061013f610464565b60405161014c9190610c3b565b60405180910390f35b61015d61048e565b005b6101676105c9565b005b34801561017557600080fd5b50610190600480360381019061018b9190610acd565b61086d565b60405161019d9190610c20565b60405180910390f35b6000600160008373ffffffffffffffffffffffffffffffffffffffff1673ffffffffffffffffffffffffffffffffffffffff168152602001908152602001600020549050919050565b7f000000000000000000000000000000000000000000000000000000000000000073ffffffffffffffffffffffffffffffffffffffff163373ffffffffffffffffffffffffffffffffffffffff1614610274576040517f579610db00000000000000000000000000000000000000000000000000000000815260040160405180910390fd5b60005b60008054905081101561031f57600080828154811061029957610298610ffe565b5b9060005260206000200160009054906101000a900473ffffffffffffffffffffffffffffffffffffffff1690506000600160008373ffffffffffffffffffffffffffffffffffffffff1673ffffffffffffffffffffffffffffffffffffffff1681526020019081526020016000208190555050808061031790610f57565b915050610277565b50600067ffffffffffffffff81111561033b5761033a61102d565b5b6040519080825280602002602001820160405280156103695781602001602082028036833780820191505090505b506000908051906020019061037f929190610990565b5060003373ffffffffffffffffffffffffffffffffffffffff16476040516103a690610c0b565b60006040518083038185875af1925050503d80600081146103e3576040519150601f19603f3d011682016040523d82523d6000602084013e6103e8565b606091505b505090508061042c576040517f08c379a000000000000000000000000000000000000000000000000000000000815260040161042390610c56565b60405180910390fd5b50565b6802b5e3af16b188000081565b60007f0000000000000000000000000000000000000000000000000000000000000000905090565b6000600260009054906101000a900473ffffffffffffffffffffffffffffffffffffffff16905090565b6802b5e3af16b18800006104cd600260009054906101000a900473ffffffffffffffffffffffffffffffffffffffff16346108b490919063ffffffff16565b101561050e576040517f08c379a000000000000000000000000000000000000000000000000000000000815260040161050590610c76565b60405180910390fd5b6000339080600181540180825580915050600190039060005260206000200160009091909190916101000a81548173ffffffffffffffffffffffffffffffffffffffff021916908373ffffffffffffffffffffffffffffffffffffffff16021790555034600160003373ffffffffffffffffffffffffffffffffffffffff1673ffffffffffffffffffffffffffffffffffffffff16815260200190815260200160002060008282546105c09190610ccd565b92505081905550565b7f000000000000000000000000000000000000000000000000000000000000000073ffffffffffffffffffffffffffffffffffffffff163373ffffffffffffffffffffffffffffffffffffffff161461064e576040517f579610db00000000000000000000000000000000000000000000000000000000815260040160405180910390fd5b6000808054806020026020016040519081016040528092919081815260200182805480156106d157602002820191906000526020600020905b8160009054906101000a900473ffffffffffffffffffffffffffffffffffffffff1673ffffffffffffffffffffffffffffffffffffffff1681526020019060010190808311610687575b5050505050905060005b815181101561075c5760008282815181106106f9576106f8610ffe565b5b602002602001015190506000600160008373ffffffffffffffffffffffffffffffffffffffff1673ffffffffffffffffffffffffffffffffffffffff1681526020019081526020016000208190555050808061075490610f57565b9150506106db565b50600067ffffffffffffffff8111156107785761077761102d565b5b6040519080825280602002602001820160405280156107a65781602001602082028036833780820191505090505b50600090805190602001906107bc929190610990565b5060003373ffffffffffffffffffffffffffffffffffffffff16476040516107e390610c0b565b60006040518083038185875af1925050503d8060008114610820576040519150601f19603f3d011682016040523d82523d6000602084013e610825565b606091505b5050905080610869576040517f08c379a000000000000000000000000000000000000000000000000000000000815260040161086090610c56565b60405180910390fd5b5050565b600080828154811061088257610881610ffe565b5b9060005260206000200160009054906101000a900473ffffffffffffffffffffffffffffffffffffffff169050919050565b6000806108c0836108f0565b90506000670de0b6b3a764000085836108d99190610e6b565b6108e39190610d23565b9050809250505092915050565b6000808273ffffffffffffffffffffffffffffffffffffffff1663feaf968c6040518163ffffffff1660e01b815260040160a06040518083038186803b15801561093957600080fd5b505afa15801561094d573d6000803e3d6000fd5b505050506040513d601f19601f820116820180604052508101906109719190610afa565b5050509150506402540be400816109889190610d54565b915050919050565b828054828255906000526020600020908101928215610a09579160200282015b82811115610a085782518260006101000a81548173ffffffffffffffffffffffffffffffffffffffff021916908373ffffffffffffffffffffffffffffffffffffffff160217905550916020019190600101906109b0565b5b509050610a169190610a1a565b5090565b5b80821115610a33576000816000905550600101610a1b565b5090565b600081359050610a46816110b6565b92915050565b600081519050610a5b816110cd565b92915050565b600081359050610a70816110e4565b92915050565b600081519050610a85816110e4565b92915050565b600081519050610a9a816110fb565b92915050565b600060208284031215610ab657610ab561105c565b5b6000610ac484828501610a37565b91505092915050565b600060208284031215610ae357610ae261105c565b5b6000610af184828501610a61565b91505092915050565b600080600080600060a08688031215610b1657610b1561105c565b5b6000610b2488828901610a8b565b9550506020610b3588828901610a4c565b9450506040610b4688828901610a76565b9350506060610b5788828901610a76565b9250506080610b6888828901610a8b565b9150509295509295909350565b610b7e81610ec5565b82525050565b610b8d81610f21565b82525050565b6000610ba0600b83610cbc565b9150610bab82611061565b602082019050919050565b6000610bc3601b83610cbc565b9150610bce8261108a565b602082019050919050565b6000610be6600083610cb1565b9150610bf1826110b3565b600082019050919050565b610c0581610f01565b82525050565b6000610c1682610bd9565b9150819050919050565b6000602082019050610c356000830184610b75565b92915050565b6000602082019050610c506000830184610b84565b92915050565b60006020820190508181036000830152610c6f81610b93565b9050919050565b60006020820190508181036000830152610c8f81610bb6565b9050919050565b6000602082019050610cab6000830184610bfc565b92915050565b600081905092915050565b600082825260208201905092915050565b6000610cd882610f01565b9150610ce383610f01565b9250827fffffffffffffffffffffffffffffffffffffffffffffffffffffffffffffffff03821115610d1857610d17610fa0565b5b828201905092915050565b6000610d2e82610f01565b9150610d3983610f01565b925082610d4957610d48610fcf565b5b828204905092915050565b6000610d5f82610ed7565b9150610d6a83610ed7565b9250827f7fffffffffffffffffffffffffffffffffffffffffffffffffffffffffffffff0482116000841360008413161615610da957610da8610fa0565b5b817f80000000000000000000000000000000000000000000000000000000000000000583126000841260008413161615610de657610de5610fa0565b5b827f80000000000000000000000000000000000000000000000000000000000000000582126000841360008412161615610e2357610e22610fa0565b5b827f7fffffffffffffffffffffffffffffffffffffffffffffffffffffffffffffff0582126000841260008412161615610e6057610e5f610fa0565b5b828202905092915050565b6000610e7682610f01565b9150610e8183610f01565b9250817fffffffffffffffffffffffffffffffffffffffffffffffffffffffffffffffff0483118215151615610eba57610eb9610fa0565b5b828202905092915050565b6000610ed082610ee1565b9050919050565b6000819050919050565b600073ffffffffffffffffffffffffffffffffffffffff82169050919050565b6000819050919050565b600069ffffffffffffffffffff82169050919050565b6000610f2c82610f33565b9050919050565b6000610f3e82610f45565b9050919050565b6000610f5082610ee1565b9050919050565b6000610f6282610f01565b91507fffffffffffffffffffffffffffffffffffffffffffffffffffffffffffffffff821415610f9557610f94610fa0565b5b600182019050919050565b7f4e487b7100000000000000000000000000000000000000000000000000000000600052601160045260246000fd5b7f4e487b7100000000000000000000000000000000000000000000000000000000600052601260045260246000fd5b7f4e487b7100000000000000000000000000000000000000000000000000000000600052603260045260246000fd5b7f4e487b7100000000000000000000000000000000000000000000000000000000600052604160045260246000fd5b600080fd5b7f43616c6c206661696c6564000000000000000000000000000000000000000000600082015250565b7f596f75206e65656420746f207370656e64206d6f726520455448210000000000600082015250565b50565b6110bf81610ec5565b81146110ca57600080fd5b50565b6110d681610ed7565b81146110e157600080fd5b50565b6110ed81610f01565b81146110f857600080fd5b50565b61110481610f0b565b811461110f57600080fd5b5056fea2646970667358221220957af6d9ab0c5e863c22129cdfe56359f8ecf172ce4f238de2c1520a4e4379a264736f6c63430008070033",
  "devdoc": {
    "author": "Moon MyeongKyun",
    "details": "This implements price feeds as our library",
    "kind": "dev",
    "methods": {},
    "title": "A contract for crowd funding",
    "version": 1
  },
  "userdoc": {
    "kind": "user",
    "methods": {},
    "notice": "This contract is to demo a sample funding contract",
    "version": 1
  },
  "storageLayout": {
    "storage": [
      {
        "astId": 62,
        "contract": "contracts/FundMe.sol:FundMe",
        "label": "s_funders",
        "offset": 0,
        "slot": "0",
        "type": "t_array(t_address)dyn_storage"
      },
      {
        "astId": 66,
        "contract": "contracts/FundMe.sol:FundMe",
        "label": "s_addressToAmountFunded",
        "offset": 0,
        "slot": "1",
        "type": "t_mapping(t_address,t_uint256)"
      },
      {
        "astId": 71,
        "contract": "contracts/FundMe.sol:FundMe",
        "label": "s_priceFeed",
        "offset": 0,
        "slot": "2",
        "type": "t_contract(AggregatorV3Interface)45"
      }
    ],
    "types": {
      "t_address": {
        "encoding": "inplace",
        "label": "address",
        "numberOfBytes": "20"
      },
      "t_array(t_address)dyn_storage": {
        "base": "t_address",
        "encoding": "dynamic_array",
        "label": "address[]",
        "numberOfBytes": "32"
      },
      "t_contract(AggregatorV3Interface)45": {
        "encoding": "inplace",
        "label": "contract AggregatorV3Interface",
        "numberOfBytes": "20"
      },
      "t_mapping(t_address,t_uint256)": {
        "encoding": "mapping",
        "key": "t_address",
        "label": "mapping(address => uint256)",
        "numberOfBytes": "32",
        "value": "t_uint256"
      },
      "t_uint256": {
        "encoding": "inplace",
        "label": "uint256",
        "numberOfBytes": "32"
      }
    }
  }
}